{
  "_format": "hh-sol-artifact-1",
  "contractName": "AwesomeNFT",
  "sourceName": "contracts/AwesomeNFT.sol",
  "abi": [
    {
      "inputs": [],
      "stateMutability": "nonpayable",
      "type": "constructor"
    },
    {
      "anonymous": false,
      "inputs": [
        {
          "indexed": true,
          "internalType": "address",
          "name": "owner",
          "type": "address"
        },
        {
          "indexed": true,
          "internalType": "address",
          "name": "approved",
          "type": "address"
        },
        {
          "indexed": true,
          "internalType": "uint256",
          "name": "tokenId",
          "type": "uint256"
        }
      ],
      "name": "Approval",
      "type": "event"
    },
    {
      "anonymous": false,
      "inputs": [
        {
          "indexed": true,
          "internalType": "address",
          "name": "owner",
          "type": "address"
        },
        {
          "indexed": true,
          "internalType": "address",
          "name": "operator",
          "type": "address"
        },
        {
          "indexed": false,
          "internalType": "bool",
          "name": "approved",
          "type": "bool"
        }
      ],
      "name": "ApprovalForAll",
      "type": "event"
    },
    {
      "anonymous": false,
      "inputs": [
        {
          "indexed": true,
          "internalType": "address",
          "name": "from",
          "type": "address"
        },
        {
          "indexed": true,
          "internalType": "address",
          "name": "to",
          "type": "address"
        },
        {
          "indexed": true,
          "internalType": "uint256",
          "name": "tokenId",
          "type": "uint256"
        }
      ],
      "name": "Transfer",
      "type": "event"
    },
    {
      "inputs": [
        {
          "internalType": "address",
          "name": "to",
          "type": "address"
        },
        {
          "internalType": "uint256",
          "name": "tokenId",
          "type": "uint256"
        }
      ],
      "name": "approve",
      "outputs": [],
      "stateMutability": "nonpayable",
      "type": "function"
    },
    {
      "inputs": [
        {
          "internalType": "address",
          "name": "owner",
          "type": "address"
        }
      ],
      "name": "balanceOf",
      "outputs": [
        {
          "internalType": "uint256",
          "name": "",
          "type": "uint256"
        }
      ],
      "stateMutability": "view",
      "type": "function"
    },
    {
      "inputs": [
        {
          "internalType": "uint256",
          "name": "tokenId",
          "type": "uint256"
        }
      ],
      "name": "getApproved",
      "outputs": [
        {
          "internalType": "address",
          "name": "",
          "type": "address"
        }
      ],
      "stateMutability": "view",
      "type": "function"
    },
    {
      "inputs": [
        {
          "internalType": "address",
          "name": "owner",
          "type": "address"
        },
        {
          "internalType": "address",
          "name": "operator",
          "type": "address"
        }
      ],
      "name": "isApprovedForAll",
      "outputs": [
        {
          "internalType": "bool",
          "name": "",
          "type": "bool"
        }
      ],
      "stateMutability": "view",
      "type": "function"
    },
    {
      "inputs": [],
      "name": "makeAnEpicNFT",
      "outputs": [],
      "stateMutability": "nonpayable",
      "type": "function"
    },
    {
      "inputs": [],
      "name": "name",
      "outputs": [
        {
          "internalType": "string",
          "name": "",
          "type": "string"
        }
      ],
      "stateMutability": "view",
      "type": "function"
    },
    {
      "inputs": [
        {
          "internalType": "uint256",
          "name": "tokenId",
          "type": "uint256"
        }
      ],
      "name": "ownerOf",
      "outputs": [
        {
          "internalType": "address",
          "name": "",
          "type": "address"
        }
      ],
      "stateMutability": "view",
      "type": "function"
    },
    {
      "inputs": [
        {
          "internalType": "uint256",
          "name": "tokenId",
          "type": "uint256"
        }
      ],
      "name": "pickRandomFirstWord",
      "outputs": [
        {
          "internalType": "string",
          "name": "",
          "type": "string"
        }
      ],
      "stateMutability": "view",
      "type": "function"
    },
    {
      "inputs": [
        {
          "internalType": "uint256",
          "name": "tokenId",
          "type": "uint256"
        }
      ],
      "name": "pickRandomSecondWord",
      "outputs": [
        {
          "internalType": "string",
          "name": "",
          "type": "string"
        }
      ],
      "stateMutability": "view",
      "type": "function"
    },
    {
      "inputs": [
        {
          "internalType": "uint256",
          "name": "tokenId",
          "type": "uint256"
        }
      ],
      "name": "pickRandomThirdWord",
      "outputs": [
        {
          "internalType": "string",
          "name": "",
          "type": "string"
        }
      ],
      "stateMutability": "view",
      "type": "function"
    },
    {
      "inputs": [
        {
          "internalType": "address",
          "name": "from",
          "type": "address"
        },
        {
          "internalType": "address",
          "name": "to",
          "type": "address"
        },
        {
          "internalType": "uint256",
          "name": "tokenId",
          "type": "uint256"
        }
      ],
      "name": "safeTransferFrom",
      "outputs": [],
      "stateMutability": "nonpayable",
      "type": "function"
    },
    {
      "inputs": [
        {
          "internalType": "address",
          "name": "from",
          "type": "address"
        },
        {
          "internalType": "address",
          "name": "to",
          "type": "address"
        },
        {
          "internalType": "uint256",
          "name": "tokenId",
          "type": "uint256"
        },
        {
          "internalType": "bytes",
          "name": "_data",
          "type": "bytes"
        }
      ],
      "name": "safeTransferFrom",
      "outputs": [],
      "stateMutability": "nonpayable",
      "type": "function"
    },
    {
      "inputs": [
        {
          "internalType": "address",
          "name": "operator",
          "type": "address"
        },
        {
          "internalType": "bool",
          "name": "approved",
          "type": "bool"
        }
      ],
      "name": "setApprovalForAll",
      "outputs": [],
      "stateMutability": "nonpayable",
      "type": "function"
    },
    {
      "inputs": [
        {
          "internalType": "bytes4",
          "name": "interfaceId",
          "type": "bytes4"
        }
      ],
      "name": "supportsInterface",
      "outputs": [
        {
          "internalType": "bool",
          "name": "",
          "type": "bool"
        }
      ],
      "stateMutability": "view",
      "type": "function"
    },
    {
      "inputs": [],
      "name": "symbol",
      "outputs": [
        {
          "internalType": "string",
          "name": "",
          "type": "string"
        }
      ],
      "stateMutability": "view",
      "type": "function"
    },
    {
      "inputs": [
        {
          "internalType": "uint256",
          "name": "tokenId",
          "type": "uint256"
        }
      ],
      "name": "tokenURI",
      "outputs": [
        {
          "internalType": "string",
          "name": "",
          "type": "string"
        }
      ],
      "stateMutability": "view",
      "type": "function"
    },
    {
      "inputs": [
        {
          "internalType": "address",
          "name": "from",
          "type": "address"
        },
        {
          "internalType": "address",
          "name": "to",
          "type": "address"
        },
        {
          "internalType": "uint256",
          "name": "tokenId",
          "type": "uint256"
        }
      ],
      "name": "transferFrom",
      "outputs": [],
      "stateMutability": "nonpayable",
      "type": "function"
    }
  ],
  "bytecode": "0x608060405260405180610160016040528061012f81526020016200412961012f913960089080519060200190620000389291906200067e565b506040518060c001604052806040518060400160405280600781526020017f417765736f6d650000000000000000000000000000000000000000000000000081525081526020016040518060400160405280600481526020017f4c616d650000000000000000000000000000000000000000000000000000000081525081526020016040518060400160405280600481526020017f436f6f6c0000000000000000000000000000000000000000000000000000000081525081526020016040518060400160405280600681526020017f536869747479000000000000000000000000000000000000000000000000000081525081526020016040518060400160405280600581526020017f4472756e6b00000000000000000000000000000000000000000000000000000081525081526020016040518060400160405280600481526020017f48696768000000000000000000000000000000000000000000000000000000008152508152506009906006620001b69291906200070f565b506040518060c001604052806040518060400160405280600681526020017f536173756b65000000000000000000000000000000000000000000000000000081525081526020016040518060400160405280600481526020017f476f6b750000000000000000000000000000000000000000000000000000000081525081526020016040518060400160405280600681526020017f4e617275746f000000000000000000000000000000000000000000000000000081525081526020016040518060400160405280600481526020017f4572656e0000000000000000000000000000000000000000000000000000000081525081526020016040518060400160405280600881526020017f4d656c696f64617300000000000000000000000000000000000000000000000081525081526020016040518060400160405280600781526020017f54616e6a69726f00000000000000000000000000000000000000000000000000815250815250600a906006620003349291906200070f565b506040518060c001604052806040518060400160405280600781526020017f42617266696e670000000000000000000000000000000000000000000000000081525081526020016040518060400160405280600c81526020017f4d616b696e6749745261696e000000000000000000000000000000000000000081525081526020016040518060400160405280600881526020017f466c697274696e6700000000000000000000000000000000000000000000000081525081526020016040518060400160405280600781526020017f44616e63696e670000000000000000000000000000000000000000000000000081525081526020016040518060400160405280600881526020017f547261696e696e6700000000000000000000000000000000000000000000000081525081526020016040518060400160405280600681526020017f456174696e670000000000000000000000000000000000000000000000000000815250815250600b906006620004b29291906200070f565b50348015620004c057600080fd5b506040518060400160405280600781526020017f546573744e4654000000000000000000000000000000000000000000000000008152506040518060400160405280600781526020017f544553544e4654000000000000000000000000000000000000000000000000008152508160009080519060200190620005459291906200067e565b5080600190805190602001906200055e9291906200067e565b505050620005ac6040518060400160405280601e81526020017f54686973206973206d79204e465420636f6e74726163742e20576f6168210000815250620005b260201b620010851760201c565b62000930565b6200065281604051602401620005c9919062000844565b6040516020818303038152906040527f41304fac000000000000000000000000000000000000000000000000000000007bffffffffffffffffffffffffffffffffffffffffffffffffffffffff19166020820180517bffffffffffffffffffffffffffffffffffffffffffffffffffffffff83818316178352505050506200065560201b60201c565b50565b60008151905060006a636f6e736f6c652e6c6f679050602083016000808483855afa5050505050565b8280546200068c90620008ba565b90600052602060002090601f016020900481019282620006b05760008555620006fc565b82601f10620006cb57805160ff1916838001178555620006fc565b82800160010185558215620006fc579182015b82811115620006fb578251825591602001919060010190620006de565b5b5090506200070b919062000776565b5090565b82805482825590600052602060002090810192821562000763579160200282015b8281111562000762578251829080519060200190620007519291906200067e565b509160200191906001019062000730565b5b50905062000772919062000795565b5090565b5b808211156200079157600081600090555060010162000777565b5090565b5b80821115620007b95760008181620007af9190620007bd565b5060010162000796565b5090565b508054620007cb90620008ba565b6000825580601f10620007df575062000800565b601f016020900490600052602060002090810190620007ff919062000776565b5b50565b6000620008108262000868565b6200081c818562000873565b93506200082e81856020860162000884565b62000839816200091f565b840191505092915050565b6000602082019050818103600083015262000860818462000803565b905092915050565b600081519050919050565b600082825260208201905092915050565b60005b83811015620008a457808201518184015260208101905062000887565b83811115620008b4576000848401525b50505050565b60006002820490506001821680620008d357607f821691505b60208210811415620008ea57620008e9620008f0565b5b50919050565b7f4e487b7100000000000000000000000000000000000000000000000000000000600052602260045260246000fd5b6000601f19601f8301169050919050565b6137e980620009406000396000f3fe608060405234801561001057600080fd5b506004361061010b5760003560e01c806370a08231116100a2578063b88d4fde11610071578063b88d4fde146102dc578063c575757a146102f8578063c87b56dd14610328578063de9d132f14610358578063e985e9c5146103625761010b565b806370a082311461024257806395d89b4114610272578063a22cb46514610290578063b187301f146102ac5761010b565b806323b872dd116100de57806323b872dd146101aa5780632de38d68146101c657806342842e0e146101f65780636352211e146102125761010b565b806301ffc9a71461011057806306fdde0314610140578063081812fc1461015e578063095ea7b31461018e575b600080fd5b61012a60048036038101906101259190612466565b610392565b604051610137919061305f565b60405180910390f35b610148610474565b604051610155919061307a565b60405180910390f35b610178600480360381019061017391906124b8565b610506565b6040516101859190612ff8565b60405180910390f35b6101a860048036038101906101a3919061242a565b61058b565b005b6101c460048036038101906101bf9190612324565b6106a3565b005b6101e060048036038101906101db91906124b8565b610703565b6040516101ed919061307a565b60405180910390f35b610210600480360381019061020b9190612324565b610821565b005b61022c600480360381019061022791906124b8565b610841565b6040516102399190612ff8565b60405180910390f35b61025c600480360381019061025791906122bf565b6108f3565b60405161026991906132da565b60405180910390f35b61027a6109ab565b604051610287919061307a565b60405180910390f35b6102aa60048036038101906102a591906123ee565b610a3d565b005b6102c660048036038101906102c191906124b8565b610a53565b6040516102d3919061307a565b60405180910390f35b6102f660048036038101906102f19190612373565b610b71565b005b610312600480360381019061030d91906124b8565b610bd3565b60405161031f919061307a565b60405180910390f35b610342600480360381019061033d91906124b8565b610cf1565b60405161034f919061307a565b60405180910390f35b610360610e43565b005b61037c600480360381019061037791906122e8565b610ff1565b604051610389919061305f565b60405180910390f35b60007f80ac58cd000000000000000000000000000000000000000000000000000000007bffffffffffffffffffffffffffffffffffffffffffffffffffffffff1916827bffffffffffffffffffffffffffffffffffffffffffffffffffffffff1916148061045d57507f5b5e139f000000000000000000000000000000000000000000000000000000007bffffffffffffffffffffffffffffffffffffffffffffffffffffffff1916827bffffffffffffffffffffffffffffffffffffffffffffffffffffffff1916145b8061046d575061046c8261111e565b5b9050919050565b60606000805461048390613579565b80601f01602080910402602001604051908101604052809291908181526020018280546104af90613579565b80156104fc5780601f106104d1576101008083540402835291602001916104fc565b820191906000526020600020905b8154815290600101906020018083116104df57829003601f168201915b5050505050905090565b600061051182611188565b610550576040517f08c379a00000000000000000000000000000000000000000000000000000000081526004016105479061323a565b60405180910390fd5b6004600083815260200190815260200160002060009054906101000a900473ffffffffffffffffffffffffffffffffffffffff169050919050565b600061059682610841565b90508073ffffffffffffffffffffffffffffffffffffffff168373ffffffffffffffffffffffffffffffffffffffff161415610607576040517f08c379a00000000000000000000000000000000000000000000000000000000081526004016105fe9061329a565b60405180910390fd5b8073ffffffffffffffffffffffffffffffffffffffff166106266111f4565b73ffffffffffffffffffffffffffffffffffffffff16148061065557506106548161064f6111f4565b610ff1565b5b610694576040517f08c379a000000000000000000000000000000000000000000000000000000000815260040161068b9061317a565b60405180910390fd5b61069e83836111fc565b505050565b6106b46106ae6111f4565b826112b5565b6106f3576040517f08c379a00000000000000000000000000000000000000000000000000000000081526004016106ea906132ba565b60405180910390fd5b6106fe838383611393565b505050565b60606000610737610713846115ef565b6040516020016107239190612fb4565b60405160208183030381529060405261179c565b90506009805490508161074a91906135f4565b905060098181548110610786577f4e487b7100000000000000000000000000000000000000000000000000000000600052603260045260246000fd5b90600052602060002001805461079b90613579565b80601f01602080910402602001604051908101604052809291908181526020018280546107c790613579565b80156108145780601f106107e957610100808354040283529160200191610814565b820191906000526020600020905b8154815290600101906020018083116107f757829003601f168201915b5050505050915050919050565b61083c83838360405180602001604052806000815250610b71565b505050565b6000806002600084815260200190815260200160002060009054906101000a900473ffffffffffffffffffffffffffffffffffffffff169050600073ffffffffffffffffffffffffffffffffffffffff168173ffffffffffffffffffffffffffffffffffffffff1614156108ea576040517f08c379a00000000000000000000000000000000000000000000000000000000081526004016108e1906131ba565b60405180910390fd5b80915050919050565b60008073ffffffffffffffffffffffffffffffffffffffff168273ffffffffffffffffffffffffffffffffffffffff161415610964576040517f08c379a000000000000000000000000000000000000000000000000000000000815260040161095b9061319a565b60405180910390fd5b600360008373ffffffffffffffffffffffffffffffffffffffff1673ffffffffffffffffffffffffffffffffffffffff168152602001908152602001600020549050919050565b6060600180546109ba90613579565b80601f01602080910402602001604051908101604052809291908181526020018280546109e690613579565b8015610a335780601f10610a0857610100808354040283529160200191610a33565b820191906000526020600020905b815481529060010190602001808311610a1657829003601f168201915b5050505050905090565b610a4f610a486111f4565b83836117cf565b5050565b60606000610a87610a63846115ef565b604051602001610a739190612f4d565b60405160208183030381529060405261179c565b9050600a8054905081610a9a91906135f4565b9050600a8181548110610ad6577f4e487b7100000000000000000000000000000000000000000000000000000000600052603260045260246000fd5b906000526020600020018054610aeb90613579565b80601f0160208091040260200160405190810160405280929190818152602001828054610b1790613579565b8015610b645780601f10610b3957610100808354040283529160200191610b64565b820191906000526020600020905b815481529060010190602001808311610b4757829003601f168201915b5050505050915050919050565b610b82610b7c6111f4565b836112b5565b610bc1576040517f08c379a0000000000000000000000000000000000000000000000000000000008152600401610bb8906132ba565b60405180910390fd5b610bcd8484848461193c565b50505050565b60606000610c07610be3846115ef565b604051602001610bf39190612f2b565b60405160208183030381529060405261179c565b9050600b8054905081610c1a91906135f4565b9050600b8181548110610c56577f4e487b7100000000000000000000000000000000000000000000000000000000600052603260045260246000fd5b906000526020600020018054610c6b90613579565b80601f0160208091040260200160405190810160405280929190818152602001828054610c9790613579565b8015610ce45780601f10610cb957610100808354040283529160200191610ce4565b820191906000526020600020905b815481529060010190602001808311610cc757829003601f168201915b5050505050915050919050565b6060610cfc82611188565b610d3b576040517f08c379a0000000000000000000000000000000000000000000000000000000008152600401610d329061321a565b60405180910390fd5b6000600660008481526020019081526020016000208054610d5b90613579565b80601f0160208091040260200160405190810160405280929190818152602001828054610d8790613579565b8015610dd45780601f10610da957610100808354040283529160200191610dd4565b820191906000526020600020905b815481529060010190602001808311610db757829003601f168201915b505050505090506000610de5611998565b9050600081511415610dfb578192505050610e3e565b600082511115610e30578082604051602001610e18929190612ea7565b60405160208183030381529060405292505050610e3e565b610e39846119af565b925050505b919050565b6000610e4f6007611a56565b90506000610e5c82610703565b90506000610e6983610a53565b90506000610e7684610bd3565b90506000838383604051602001610e8f93929190612ecb565b60405160208183030381529060405290506000600882604051602001610eb6929190612efc565b60405160208183030381529060405290506000610efb83610ed684611a64565b604051602001610ee7929190612f6f565b604051602081830303815290604052611a64565b9050600081604051602001610f109190612fd6565b6040516020818303038152906040529050610f5f6040518060400160405280601581526020017f0a2d2d2d2d2d2d2d2d2d2d2d2d2d2d2d2d2d2d2d2d0000000000000000000000815250611085565b610f6881611085565b610fa66040518060400160405280601581526020017f2d2d2d2d2d2d2d2d2d2d2d2d2d2d2d2d2d2d2d2d0a0000000000000000000000815250611085565b610fb03389611c03565b610fba8882611c21565b610fc46007611c95565b610fe760405180606001604052806025815260200161374f602591398933611cab565b5050505050505050565b6000600560008473ffffffffffffffffffffffffffffffffffffffff1673ffffffffffffffffffffffffffffffffffffffff16815260200190815260200160002060008373ffffffffffffffffffffffffffffffffffffffff1673ffffffffffffffffffffffffffffffffffffffff16815260200190815260200160002060009054906101000a900460ff16905092915050565b61111b81604051602401611099919061307a565b6040516020818303038152906040527f41304fac000000000000000000000000000000000000000000000000000000007bffffffffffffffffffffffffffffffffffffffffffffffffffffffff19166020820180517bffffffffffffffffffffffffffffffffffffffffffffffffffffffff8381831617835250505050611d4a565b50565b60007f01ffc9a7000000000000000000000000000000000000000000000000000000007bffffffffffffffffffffffffffffffffffffffffffffffffffffffff1916827bffffffffffffffffffffffffffffffffffffffffffffffffffffffff1916149050919050565b60008073ffffffffffffffffffffffffffffffffffffffff166002600084815260200190815260200160002060009054906101000a900473ffffffffffffffffffffffffffffffffffffffff1673ffffffffffffffffffffffffffffffffffffffff1614159050919050565b600033905090565b816004600083815260200190815260200160002060006101000a81548173ffffffffffffffffffffffffffffffffffffffff021916908373ffffffffffffffffffffffffffffffffffffffff160217905550808273ffffffffffffffffffffffffffffffffffffffff1661126f83610841565b73ffffffffffffffffffffffffffffffffffffffff167f8c5be1e5ebec7d5bd14f71427d1e84f3dd0314c0f7b2291e5b200ac8c7c3b92560405160405180910390a45050565b60006112c082611188565b6112ff576040517f08c379a00000000000000000000000000000000000000000000000000000000081526004016112f69061315a565b60405180910390fd5b600061130a83610841565b90508073ffffffffffffffffffffffffffffffffffffffff168473ffffffffffffffffffffffffffffffffffffffff16148061137957508373ffffffffffffffffffffffffffffffffffffffff1661136184610506565b73ffffffffffffffffffffffffffffffffffffffff16145b8061138a57506113898185610ff1565b5b91505092915050565b8273ffffffffffffffffffffffffffffffffffffffff166113b382610841565b73ffffffffffffffffffffffffffffffffffffffff1614611409576040517f08c379a00000000000000000000000000000000000000000000000000000000081526004016114009061325a565b60405180910390fd5b600073ffffffffffffffffffffffffffffffffffffffff168273ffffffffffffffffffffffffffffffffffffffff161415611479576040517f08c379a00000000000000000000000000000000000000000000000000000000081526004016114709061311a565b60405180910390fd5b611484838383611d73565b61148f6000826111fc565b6001600360008573ffffffffffffffffffffffffffffffffffffffff1673ffffffffffffffffffffffffffffffffffffffff16815260200190815260200160002060008282546114df919061348f565b925050819055506001600360008473ffffffffffffffffffffffffffffffffffffffff1673ffffffffffffffffffffffffffffffffffffffff168152602001908152602001600020600082825461153691906133ae565b92505081905550816002600083815260200190815260200160002060006101000a81548173ffffffffffffffffffffffffffffffffffffffff021916908373ffffffffffffffffffffffffffffffffffffffff160217905550808273ffffffffffffffffffffffffffffffffffffffff168473ffffffffffffffffffffffffffffffffffffffff167fddf252ad1be2c89b69c2b068fc378daa952ba7f163c4a11628f55a4df523b3ef60405160405180910390a4505050565b60606000821415611637576040518060400160405280600181526020017f30000000000000000000000000000000000000000000000000000000000000008152509050611797565b600082905060005b60008214611669578080611652906135ab565b915050600a826116629190613404565b915061163f565b60008167ffffffffffffffff8111156116ab577f4e487b7100000000000000000000000000000000000000000000000000000000600052604160045260246000fd5b6040519080825280601f01601f1916602001820160405280156116dd5781602001600182028036833780820191505090505b5090505b60008514611790576001826116f6919061348f565b9150600a8561170591906135f4565b603061171191906133ae565b60f81b81838151811061174d577f4e487b7100000000000000000000000000000000000000000000000000000000600052603260045260246000fd5b60200101907effffffffffffffffffffffffffffffffffffffffffffffffffffffffffffff1916908160001a905350600a856117899190613404565b94506116e1565b8093505050505b919050565b6000816040516020016117af9190612e90565b6040516020818303038152906040528051906020012060001c9050919050565b8173ffffffffffffffffffffffffffffffffffffffff168373ffffffffffffffffffffffffffffffffffffffff16141561183e576040517f08c379a00000000000000000000000000000000000000000000000000000000081526004016118359061313a565b60405180910390fd5b80600560008573ffffffffffffffffffffffffffffffffffffffff1673ffffffffffffffffffffffffffffffffffffffff16815260200190815260200160002060008473ffffffffffffffffffffffffffffffffffffffff1673ffffffffffffffffffffffffffffffffffffffff16815260200190815260200160002060006101000a81548160ff0219169083151502179055508173ffffffffffffffffffffffffffffffffffffffff168373ffffffffffffffffffffffffffffffffffffffff167f17307eab39ab6107e8899845ad3d59bd9653f200f220920489ca2b5937696c318360405161192f919061305f565b60405180910390a3505050565b611947848484611393565b61195384848484611d78565b611992576040517f08c379a0000000000000000000000000000000000000000000000000000000008152600401611989906130da565b60405180910390fd5b50505050565b606060405180602001604052806000815250905090565b60606119ba82611188565b6119f9576040517f08c379a00000000000000000000000000000000000000000000000000000000081526004016119f09061327a565b60405180910390fd5b6000611a03611998565b90506000815111611a235760405180602001604052806000815250611a4e565b80611a2d846115ef565b604051602001611a3e929190612ea7565b6040516020818303038152906040525b915050919050565b600081600001549050919050565b6060600082511415611a8757604051806020016040528060008152509050611bfe565b60006040518060600160405280604081526020016137746040913990506000600360028551611ab691906133ae565b611ac09190613404565b6004611acc9190613435565b90506000602082611add91906133ae565b67ffffffffffffffff811115611b1c577f4e487b7100000000000000000000000000000000000000000000000000000000600052604160045260246000fd5b6040519080825280601f01601f191660200182016040528015611b4e5781602001600182028036833780820191505090505b509050818152600183018586518101602084015b81831015611bbd576003830192508251603f8160121c168501518253600182019150603f81600c1c168501518253600182019150603f8160061c168501518253600182019150603f8116850151825360018201915050611b62565b600389510660018114611bd75760028114611be757611bf2565b613d3d60f01b6002830352611bf2565b603d60f81b60018303525b50505050508093505050505b919050565b611c1d828260405180602001604052806000815250611f0f565b5050565b611c2a82611188565b611c69576040517f08c379a0000000000000000000000000000000000000000000000000000000008152600401611c60906131da565b60405180910390fd5b80600660008481526020019081526020016000209080519060200190611c9092919061214b565b505050565b6001816000016000828254019250508190555050565b611d45838383604051602401611cc39392919061309c565b6040516020818303038152906040527fe3849f79000000000000000000000000000000000000000000000000000000007bffffffffffffffffffffffffffffffffffffffffffffffffffffffff19166020820180517bffffffffffffffffffffffffffffffffffffffffffffffffffffffff8381831617835250505050611d4a565b505050565b60008151905060006a636f6e736f6c652e6c6f679050602083016000808483855afa5050505050565b505050565b6000611d998473ffffffffffffffffffffffffffffffffffffffff16611f6a565b15611f02578373ffffffffffffffffffffffffffffffffffffffff1663150b7a02611dc26111f4565b8786866040518563ffffffff1660e01b8152600401611de49493929190613013565b602060405180830381600087803b158015611dfe57600080fd5b505af1925050508015611e2f57506040513d601f19601f82011682018060405250810190611e2c919061248f565b60015b611eb2573d8060008114611e5f576040519150601f19603f3d011682016040523d82523d6000602084013e611e64565b606091505b50600081511415611eaa576040517f08c379a0000000000000000000000000000000000000000000000000000000008152600401611ea1906130da565b60405180910390fd5b805181602001fd5b63150b7a0260e01b7bffffffffffffffffffffffffffffffffffffffffffffffffffffffff1916817bffffffffffffffffffffffffffffffffffffffffffffffffffffffff191614915050611f07565b600190505b949350505050565b611f198383611f7d565b611f266000848484611d78565b611f65576040517f08c379a0000000000000000000000000000000000000000000000000000000008152600401611f5c906130da565b60405180910390fd5b505050565b600080823b905060008111915050919050565b600073ffffffffffffffffffffffffffffffffffffffff168273ffffffffffffffffffffffffffffffffffffffff161415611fed576040517f08c379a0000000000000000000000000000000000000000000000000000000008152600401611fe4906131fa565b60405180910390fd5b611ff681611188565b15612036576040517f08c379a000000000000000000000000000000000000000000000000000000000815260040161202d906130fa565b60405180910390fd5b61204260008383611d73565b6001600360008473ffffffffffffffffffffffffffffffffffffffff1673ffffffffffffffffffffffffffffffffffffffff168152602001908152602001600020600082825461209291906133ae565b92505081905550816002600083815260200190815260200160002060006101000a81548173ffffffffffffffffffffffffffffffffffffffff021916908373ffffffffffffffffffffffffffffffffffffffff160217905550808273ffffffffffffffffffffffffffffffffffffffff16600073ffffffffffffffffffffffffffffffffffffffff167fddf252ad1be2c89b69c2b068fc378daa952ba7f163c4a11628f55a4df523b3ef60405160405180910390a45050565b82805461215790613579565b90600052602060002090601f01602090048101928261217957600085556121c0565b82601f1061219257805160ff19168380011785556121c0565b828001600101855582156121c0579182015b828111156121bf5782518255916020019190600101906121a4565b5b5090506121cd91906121d1565b5090565b5b808211156121ea5760008160009055506001016121d2565b5090565b60006122016121fc84613326565b6132f5565b90508281526020810184848401111561221957600080fd5b612224848285613537565b509392505050565b60008135905061223b816136f2565b92915050565b60008135905061225081613709565b92915050565b60008135905061226581613720565b92915050565b60008151905061227a81613720565b92915050565b600082601f83011261229157600080fd5b81356122a18482602086016121ee565b91505092915050565b6000813590506122b981613737565b92915050565b6000602082840312156122d157600080fd5b60006122df8482850161222c565b91505092915050565b600080604083850312156122fb57600080fd5b60006123098582860161222c565b925050602061231a8582860161222c565b9150509250929050565b60008060006060848603121561233957600080fd5b60006123478682870161222c565b93505060206123588682870161222c565b9250506040612369868287016122aa565b9150509250925092565b6000806000806080858703121561238957600080fd5b60006123978782880161222c565b94505060206123a88782880161222c565b93505060406123b9878288016122aa565b925050606085013567ffffffffffffffff8111156123d657600080fd5b6123e287828801612280565b91505092959194509250565b6000806040838503121561240157600080fd5b600061240f8582860161222c565b925050602061242085828601612241565b9150509250929050565b6000806040838503121561243d57600080fd5b600061244b8582860161222c565b925050602061245c858286016122aa565b9150509250929050565b60006020828403121561247857600080fd5b600061248684828501612256565b91505092915050565b6000602082840312156124a157600080fd5b60006124af8482850161226b565b91505092915050565b6000602082840312156124ca57600080fd5b60006124d8848285016122aa565b91505092915050565b6124ea816134c3565b82525050565b6124f9816134d5565b82525050565b600061250a8261336b565b6125148185613381565b9350612524818560208601613546565b61252d816136e1565b840191505092915050565b600061254382613376565b61254d8185613392565b935061255d818560208601613546565b612566816136e1565b840191505092915050565b600061257c82613376565b61258681856133a3565b9350612596818560208601613546565b80840191505092915050565b600081546125af81613579565b6125b981866133a3565b945060018216600081146125d457600181146125e557612618565b60ff19831686528186019350612618565b6125ee85613356565b60005b83811015612610578154818901526001820191506020810190506125f1565b838801955050505b50505092915050565b600061262e603283613392565b91507f4552433732313a207472616e7366657220746f206e6f6e20455243373231526560008301527f63656976657220696d706c656d656e74657200000000000000000000000000006020830152604082019050919050565b6000612694601c83613392565b91507f4552433732313a20746f6b656e20616c7265616479206d696e746564000000006000830152602082019050919050565b60006126d4600a836133a3565b91507f54484952445f574f5244000000000000000000000000000000000000000000006000830152600a82019050919050565b6000612714602483613392565b91507f4552433732313a207472616e7366657220746f20746865207a65726f2061646460008301527f72657373000000000000000000000000000000000000000000000000000000006020830152604082019050919050565b600061277a601983613392565b91507f4552433732313a20617070726f766520746f2063616c6c6572000000000000006000830152602082019050919050565b60006127ba6063836133a3565b91507f222c20226465736372697074696f6e223a20224120686967686c79206163636c60008301527f61696d656420636f6c6c656374696f6e206f6620737175617265732e222c202260208301527f696d616765223a2022646174613a696d6167652f7376672b786d6c3b6261736560408301527f36342c00000000000000000000000000000000000000000000000000000000006060830152606382019050919050565b600061286c600b836133a3565b91507f5345434f4e445f574f52440000000000000000000000000000000000000000006000830152600b82019050919050565b60006128ac602c83613392565b91507f4552433732313a206f70657261746f7220717565727920666f72206e6f6e657860008301527f697374656e7420746f6b656e00000000000000000000000000000000000000006020830152604082019050919050565b6000612912600d836133a3565b91507f3c2f746578743e3c2f7376673e000000000000000000000000000000000000006000830152600d82019050919050565b6000612952603883613392565b91507f4552433732313a20617070726f76652063616c6c6572206973206e6f74206f7760008301527f6e6572206e6f7220617070726f76656420666f7220616c6c00000000000000006020830152604082019050919050565b60006129b8602a83613392565b91507f4552433732313a2062616c616e636520717565727920666f7220746865207a6560008301527f726f2061646472657373000000000000000000000000000000000000000000006020830152604082019050919050565b6000612a1e602983613392565b91507f4552433732313a206f776e657220717565727920666f72206e6f6e657869737460008301527f656e7420746f6b656e00000000000000000000000000000000000000000000006020830152604082019050919050565b6000612a84602e83613392565b91507f45524337323155524953746f726167653a2055524920736574206f66206e6f6e60008301527f6578697374656e7420746f6b656e0000000000000000000000000000000000006020830152604082019050919050565b6000612aea6002836133a3565b91507f227d0000000000000000000000000000000000000000000000000000000000006000830152600282019050919050565b6000612b2a602083613392565b91507f4552433732313a206d696e7420746f20746865207a65726f20616464726573736000830152602082019050919050565b6000612b6a603183613392565b91507f45524337323155524953746f726167653a2055524920717565727920666f722060008301527f6e6f6e6578697374656e7420746f6b656e0000000000000000000000000000006020830152604082019050919050565b6000612bd0602c83613392565b91507f4552433732313a20617070726f76656420717565727920666f72206e6f6e657860008301527f697374656e7420746f6b656e00000000000000000000000000000000000000006020830152604082019050919050565b6000612c36602983613392565b91507f4552433732313a207472616e73666572206f6620746f6b656e2074686174206960008301527f73206e6f74206f776e00000000000000000000000000000000000000000000006020830152604082019050919050565b6000612c9c602f83613392565b91507f4552433732314d657461646174613a2055524920717565727920666f72206e6f60008301527f6e6578697374656e7420746f6b656e00000000000000000000000000000000006020830152604082019050919050565b6000612d02600a836133a3565b91507f7b226e616d65223a2022000000000000000000000000000000000000000000006000830152600a82019050919050565b6000612d42602183613392565b91507f4552433732313a20617070726f76616c20746f2063757272656e74206f776e6560008301527f72000000000000000000000000000000000000000000000000000000000000006020830152604082019050919050565b6000612da8600a836133a3565b91507f46495253545f574f5244000000000000000000000000000000000000000000006000830152600a82019050919050565b6000612de8601d836133a3565b91507f646174613a6170706c69636174696f6e2f6a736f6e3b6261736536342c0000006000830152601d82019050919050565b6000612e28603183613392565b91507f4552433732313a207472616e736665722063616c6c6572206973206e6f74206f60008301527f776e6572206e6f7220617070726f7665640000000000000000000000000000006020830152604082019050919050565b612e8a8161352d565b82525050565b6000612e9c8284612571565b915081905092915050565b6000612eb38285612571565b9150612ebf8284612571565b91508190509392505050565b6000612ed78286612571565b9150612ee38285612571565b9150612eef8284612571565b9150819050949350505050565b6000612f0882856125a2565b9150612f148284612571565b9150612f1f82612905565b91508190509392505050565b6000612f36826126c7565b9150612f428284612571565b915081905092915050565b6000612f588261285f565b9150612f648284612571565b915081905092915050565b6000612f7a82612cf5565b9150612f868285612571565b9150612f91826127ad565b9150612f9d8284612571565b9150612fa882612add565b91508190509392505050565b6000612fbf82612d9b565b9150612fcb8284612571565b915081905092915050565b6000612fe182612ddb565b9150612fed8284612571565b915081905092915050565b600060208201905061300d60008301846124e1565b92915050565b600060808201905061302860008301876124e1565b61303560208301866124e1565b6130426040830185612e81565b818103606083015261305481846124ff565b905095945050505050565b600060208201905061307460008301846124f0565b92915050565b600060208201905081810360008301526130948184612538565b905092915050565b600060608201905081810360008301526130b68186612538565b90506130c56020830185612e81565b6130d260408301846124e1565b949350505050565b600060208201905081810360008301526130f381612621565b9050919050565b6000602082019050818103600083015261311381612687565b9050919050565b6000602082019050818103600083015261313381612707565b9050919050565b600060208201905081810360008301526131538161276d565b9050919050565b600060208201905081810360008301526131738161289f565b9050919050565b6000602082019050818103600083015261319381612945565b9050919050565b600060208201905081810360008301526131b3816129ab565b9050919050565b600060208201905081810360008301526131d381612a11565b9050919050565b600060208201905081810360008301526131f381612a77565b9050919050565b6000602082019050818103600083015261321381612b1d565b9050919050565b6000602082019050818103600083015261323381612b5d565b9050919050565b6000602082019050818103600083015261325381612bc3565b9050919050565b6000602082019050818103600083015261327381612c29565b9050919050565b6000602082019050818103600083015261329381612c8f565b9050919050565b600060208201905081810360008301526132b381612d35565b9050919050565b600060208201905081810360008301526132d381612e1b565b9050919050565b60006020820190506132ef6000830184612e81565b92915050565b6000604051905081810181811067ffffffffffffffff8211171561331c5761331b6136b2565b5b8060405250919050565b600067ffffffffffffffff821115613341576133406136b2565b5b601f19601f8301169050602081019050919050565b60008190508160005260206000209050919050565b600081519050919050565b600081519050919050565b600082825260208201905092915050565b600082825260208201905092915050565b600081905092915050565b60006133b98261352d565b91506133c48361352d565b9250827fffffffffffffffffffffffffffffffffffffffffffffffffffffffffffffffff038211156133f9576133f8613625565b5b828201905092915050565b600061340f8261352d565b915061341a8361352d565b92508261342a57613429613654565b5b828204905092915050565b60006134408261352d565b915061344b8361352d565b9250817fffffffffffffffffffffffffffffffffffffffffffffffffffffffffffffffff048311821515161561348457613483613625565b5b828202905092915050565b600061349a8261352d565b91506134a58361352d565b9250828210156134b8576134b7613625565b5b828203905092915050565b60006134ce8261350d565b9050919050565b60008115159050919050565b60007fffffffff0000000000000000000000000000000000000000000000000000000082169050919050565b600073ffffffffffffffffffffffffffffffffffffffff82169050919050565b6000819050919050565b82818337600083830152505050565b60005b83811015613564578082015181840152602081019050613549565b83811115613573576000848401525b50505050565b6000600282049050600182168061359157607f821691505b602082108114156135a5576135a4613683565b5b50919050565b60006135b68261352d565b91507fffffffffffffffffffffffffffffffffffffffffffffffffffffffffffffffff8214156135e9576135e8613625565b5b600182019050919050565b60006135ff8261352d565b915061360a8361352d565b92508261361a57613619613654565b5b828206905092915050565b7f4e487b7100000000000000000000000000000000000000000000000000000000600052601160045260246000fd5b7f4e487b7100000000000000000000000000000000000000000000000000000000600052601260045260246000fd5b7f4e487b7100000000000000000000000000000000000000000000000000000000600052602260045260246000fd5b7f4e487b7100000000000000000000000000000000000000000000000000000000600052604160045260246000fd5b6000601f19601f8301169050919050565b6136fb816134c3565b811461370657600080fd5b50565b613712816134d5565b811461371d57600080fd5b50565b613729816134e1565b811461373457600080fd5b50565b6137408161352d565b811461374b57600080fd5b5056fe416e204e465420772f20494420257320686173206265656e206d696e74656420746f2025734142434445464748494a4b4c4d4e4f505152535455565758595a6162636465666768696a6b6c6d6e6f707172737475767778797a303132333435363738392b2fa26469706673582212202cc24996eb2cca530d8a384498db8e4f603676168143c93e609f617f2b9c651064736f6c634300080000333c73766720786d6c6e733d27687474703a2f2f7777772e77332e6f72672f323030302f73766727207072657365727665417370656374526174696f3d27784d696e594d696e206d656574272076696577426f783d273020302033353020333530273e3c7374796c653e2e62617365207b2066696c6c3a2077686974653b20666f6e742d66616d696c793a2073657269663b20666f6e742d73697a653a20323470783b207d3c2f7374796c653e3c726563742077696474683d273130302527206865696768743d2731303025272066696c6c3d27626c61636b27202f3e3c7465787420783d273530252720793d273530252720636c6173733d27626173652720646f6d696e616e742d626173656c696e653d276d6964646c652720746578742d616e63686f723d276d6964646c65273e",
  "linkReferences": {},
  "deployedLinkReferences": {}
}